:020000041000EA
:1000000000B5324B212058609868022188439860DF
:10001000D860186158612E4B002199600221596106
:100020000121F02299502B49196001219960352056
:1000300000F044F80222904214D00621196600F024
:1000400034F8196E01211966002018661A6600F04E
:100050002CF8196E196E196E052000F02FF8012189
:100060000842F9D1002199601B49196000215960AB
:100070001A491B48016001219960EB211966A021F2
:10008000196600F012F800219960164914480160C1
:100090000121996001BC002800D000471248134993
:1000A000086003C880F30888084703B5996A0420EC
:1000B0000142FBD001200142F8D103BD02B5186610
:1000C0001866FFF7F2FF186E186E02BD00000240BE
:1000D000000000180000070000035F00212200005C
:1000E000F4000018222000A00001001008ED00E03C
:1000F00000000000000000000000000074B24E7A12
:1001000000200420F7010010C3010010C5010010F9
:10011000C1010010C1010010C1010010C101001097
:10012000C1010010C1010010C1010010C701001081
:10013000C1010010C1010010C9010010CB01001065
:10014000CD010010CD010010CD010010CD01001037
:10015000CD010010CD010010CD010010CD01001027
:10016000CD010010CD010010CD010010CD01001017
:10017000CD010010CD010010CD010010CD01001007
:10018000CD010010CD010010CD010010CD010010F7
:10019000CD010010CD010010CD010010CD010010E7
:1001A000CD010010CD010010CD010010CD010010D7
:1001B000CD010010CD010010CD010010CD010010C7
:1001C00000BE00BE00BE00BE00BE00BEEFF3058054
:1001D000103800BEF2EB8871746E0010A06E001033
:1001E0003802001090A31AE71E481F49086006C88D
:1001F00081F3088810471D480068002801D019487D
:10020000F3E70DA40ECC002902D000F012F8F9E7B4
:100210001749184A002000E001C19142FCD116495B
:100220008847164988471649884700BEFDE701C937
:1002300001C29A42FBD37047A06E0010C00000209C
:10024000D8150020B883001000000420000004200E
:10025000B8830010001004200010042000000000EB
:10026000704700000000000008ED00E0000000D032
:10027000D815002070360020F520001091030010E2
:10028000ED200010F8B5C04606480749091A8B1042
:10029000C90FC91810B5491003D0044B002B00D06A
:1002A000984710BDD8150020D81500200000000088
:1002B000054B10B5002B03D00449054800E000BFF2
:1002C000FFF7E2FF10BDC04600000000FC34002034
:1002D00084690010012110B50C00124BA0201B688E
:1002E000114A9C40C0058450104A1078002813D051
:1002F0000F480170012011784140002011700D4914
:1003000008601278002A0AD00B4AA021C9058C4641
:100310009B016344DA6210BD08480170EAE7084AAD
:10032000F3E7C046D83000200C040000980F0020EE
:100330006836002034350020D8200020693600209F
:10034000D8280020074A0849137809681B034B4046
:10035000E021C9010B40054901200B6013780023FF
:10036000137070476A36002000C0044000D004407B
:1003700010B504001F2100F0BBF80022200000216E
:1003800000F0D0F80021200000F0E0F810BDC046D9
:10039000F0B5CE46474680B58BB001F0F9FFFA20A4
:1003A000C00000F0BBFF3F4802F044F802F056F9ED
:1003B0001A20FFF7DDFF1B20FFF7DAFF3A4B012081
:1003C0001A683A4B53403A4A13403A4A136008229B
:1003D000394B1A6002F05EF9A021C9058C46374BF3
:1003E000374A1860C3021340364A37491A4383011B
:1003F000634419603549596088468021C900996075
:10040000DA6001238340324A0B201360314900F047
:10041000ABF901210B2000F06FF900F07FFE04AB77
:100420000293002301932C4B009319225242D317BD
:1004300001F078F800282CD0284B00279946284D49
:10044000284E294C2B78002B12D12378002BF9D081
:100450008022336802219B68D200484605F074F878
:100460003368986805F0FAFA27702B78002BECD0E7
:100470008022336802219B68D200404605F064F870
:100480003368986805F0EAFA2F702378002BD9D0EA
:10049000DEE7164801F0CEFF01200BB0C0BCB94624
:1004A000B046F0BD8869001008C004400900000192
:1004B0000F00000F08D0044000E00440D8300020B6
:1004C000FD7F00FF250012000CC00440D820002052
:1004D00004240050D502001045030010D828002045
:1004E000683600208C14002069360020B86900109E
:1004F000094A83009A1810B514684022544080328B
:100500002240064CC000A44663441A60044B9C463B
:100510006044416010BDC04604C0014004D00140A9
:1005200000400140074B8000C3181B68C9009200BF
:100530000A435A400C231340034A94466044036024
:100540007047C04604C0014004D00140800000292B
:1005500005D0064B9C464023604403607047044B23
:100560009C46402360440360F8E7C04604E0014035
:1005700004F001408023DB051868000F7047C04677
:100580000FB400B5084883B001F054FF049B002B62
:1005900007D005A91800019101F03EFD034801F0C4
:1005A00049FF012001F050FDD8690010E8690010F2
:1005B00070B5EFF3108C72B60D4D2B68002BFCD08C
:1005C000BFF35F8F0724CB08C618C05C01230C4023
:1005D000A3401C000440034207D118433070BFF30E
:1005E0005F8F2C608CF3108870BD1000FFF7C8FF80
:1005F0002C0100D0F8B54746CE46884680B5EFF3CB
:10060000108C72B61C4D2C68002CFCD0BFF35F8F91
:100610009A4222D807210126894602E001329342FC
:1006200018D34D4637001540AF40D4080119045D7A
:100630002742F3D110003C430C70BFF35F8F0022C0
:100640000D4B1A608CF3108800280EDBC0BCB94635
:10065000B046F8BD01204042EFE7BFF35F8F0023B3
:100660002B608CF31088012040424346002BEDD0D4
:100670000898FFF785FFC0462C0100D0044A107887
:10068000431CDBB2172B00D9102313707047C046F0
:10069000990F002010B5064B064C82B00100009364
:1006A00018221F232000FFF7A5FF02B010BDC0468F
:1006B000EC690010802000200021044B044ABFF3A5
:1006C0005F8F02C39342FAD17047C046000100D049
:1006D000800100D0054B064A1360064A1360536040
:1006E0009360D36013615361936170478080808011
:1006F00000E400E004E400E01F2318401E3B8340B8
:10070000002905D0C021044A4900535013607047A6
:10071000802201498B50FAE700E100E0012282408B
:10072000034B1B6813405A1E9341D8B27047C04612
:1007300000E100E001238340014A13607047C04696
:1007400000E200E0064B10309B688000C358054A69
:1007500000209B1A2F229A424041C0B27047C046E7
:1007600000ED00E09C0F002070B50D00EFF3108647
:1007700072B60F4A1368002BFCD0BFF35F8F0D4B8E
:1007800010309B6884001B590B4A934203D09D4252
:1007900001D001F03FFA074B9B681D51BFF35F8FFB
:1007A000BFF35F8F0022024B1A6086F3108870BD82
:1007B000240100D000ED00E0CD010010F0B5574657
:1007C0004E46DE464546E0B585B00600009117006E
:1007D000EFF3108B72B66A4A1368002BFCD0BFF39C
:1007E0005F8F0025674B5D579A46002D00DAA9E020
:1007F0006B00654C01935B199B009846A146C14470
:100800004B4652469B7910361370604BB6009B687E
:1008100099590B1B2F2B33D95D4B994200D0ACE07B
:10082000019B42469C465B4B6544AD0063535A4B6B
:100830000232A218043B9B1A1B05584A5B0D65192E
:1008400013436B80564B0121AB80FF23AB71009BA0
:10085000EF71AB604B460B4319004C4B9B689951B1
:10086000BFF35F8FBFF35F8F0022454B1A608BF39E
:10087000108805B0F0BCBB46B246A946A046F0BD04
:1008800001200A008243D3798C46BB4231D84546C9
:10089000130044491B1B5B415943090D3D4B6353F6
:1008A0003D4B02356519043B5B1B1B053B4D5B0D46
:1008B0002B43AA464D466B800425AC465546E04482
:1008C000131F44441B1B1B055B0D1D434B469971B5
:1008D00000999D8099604946DF71334B0143136055
:1008E000BBE75800C01880002018C179B9422FD941
:1008F00002000623D356002BF3DA02932B4B6146FA
:100900000393131D9A4604235B429C46E1445046E0
:100910004B461B1A1B055B0D9C46204B9571984658
:100920006346404603439380019B5A199200039B00
:10093000A418A380029B1C4AA371009B2260E7714C
:10094000A3608AE701F066F9002553465D574FE73B
:10095000908802934005131D9A46031561469C46F4
:100960004046D444634604302018181AE02300059A
:10097000400D1B0218430390C5E701F04BF94FE708
:10098000240100D06B3600209C0F002000ED00E019
:10099000CD01001000A1FFFFCC0F002000E0FFFF01
:1009A00001BDFFFFAAAA00000148804701BD000069
:1009B000F0B5DE4657464E464546E0B50C0083B0DE
:1009C000EFF3108872B6634A1368002BFCD0BFF3B4
:1009D0005F8F614B61499A68030010339F00D559BE
:1009E00001938D4243D0A54254D05D4EAA1B2F2ABD
:1009F0003DD85C4B9B461B68994601231A009C46D8
:100A000082404B4613401F22994663460240934062
:100A10009A4680225B4650469850BFF35F8FEFF3B3
:100A200005839B46002B37D0019B5B4501D001F02D
:100A3000F1F801232A009A439068844208D176E0B5
:100A40004B005B189B00F3189868844236D01A005C
:100A5000062151560029F3DA844254D04B46002B2C
:100A600027D0C02251463F4B5200995019603A4B53
:100A70009B68DD51BFF35F8FBFF35F8F0022354B63
:100A80001A6088F3108803B0F0BCBB46B246A94692
:100A9000A046F0BD0D00EAE72A0063469A4390683D
:100AA0008442D5D106201056130000280ADA0D0022
:100AB00031E0802351462B4AD150D8E70620185602
:100AC000002821DB42001118890074188B46A168A8
:100AD0009960E179D971062161569971002924DB69
:100AE000A488F11A640524155C44091909051E4CF3
:100AF000490D2143998013181C4A9B001178F31863
:100B000099711070AAE713005946002914D1FF31DA
:100B100091711749918015490A789A71154A9B1B62
:100B20005B415A43120D0A7098E71149E2E706202B
:100B3000105613000028C5DA0F4A1049D21A083A95
:100B40005002400D014399800D4952080A43DA8052
:100B500084E7C046240100D000ED00E0CD01001084
:100B60009C0F002000E100E000E0FFFF6B3600205A
:100B700001BDFFFFAAAA0000D60F002000F0FFFF72
:100B800000F8FFFF70B501240443EFF30581EFF394
:100B9000108C72B6214A1368002BFCD0BFF35F8F14
:100BA0001F4B05001F4AED1A6D416A43120D1E4D81
:100BB0008900AE6852B27658A6421CD0062159561A
:100BC00091421CD012215956914222D01E215956D1
:100BD000914220D02A2159560324914210D0134B20
:100BE00019781A708171BFF35F8F00220B4B1A6066
:100BF0008CF3108870BDAB680D4C5C50EFE700249F
:100C00006100091989005B18FF21997109499980D0
:100C1000E5E70124F4E70224F2E7C046240100D00E
:100C20009C0F0020AAAA000000ED00E06B36002017
:100C3000CD01001001BDFFFF10B5084B084C82B07C
:100C400001000093002205232000FFF7D3FC0028B9
:100C500001DB1F23181A02B010BDC046086A00103D
:100C60006F360020024B9C4661448900016070474A
:100C70004000003470B5114C114DAC420FD2FF262C
:100C80002368002B0CD0FFF7F9FC01002000FFF7D0
:100C9000E9FFA680BFF35F8F0834AC42F0D370BD8C
:100CA000FFF7ECFC01002000FFF7DCFF2671BFF32B
:100CB0005F8F0834AC42E3D3F1E7C046D015002083
:100CC000D815002010B50400FFF7D8FC0100200063
:100CD000FFF7C8FFFF232371BFF35F8F10BDC0462E
:100CE00010B504000120FFF7D5FC034BC3189B008F
:100CF0002360BFF35F8F10BD40000034034B9C4660
:100D0000614489000160BFF35F8F70474000003489
:100D10000A4B1968EFF3108072B60A68002AFCD0FB
:100D2000BFF35F8F1B68BFF35F8F00221A6080F3F1
:100D3000108840BF002000217047C0463C3600208C
:100D4000F0B5DE4657464E464546E0B587B0EFF370
:100D50000583032201251A40954091008846A94643
:100D6000B34B03925C58B34B1D60B34B04934B469B
:100D7000B24843630823E55E002D37DAA3881BB22F
:100D8000002B00DBADE0A379002B00D0EEE00823C0
:100D9000E05E002820DB430062691B18DB00D318EB
:100DA0009E68DD68731C00D111E1A4480100414434
:100DB000826A0B69B71A9B1A9F4215D30123026AF4
:100DC000039883401A420FD09C4800F047FC8D42A4
:100DD00002DCCCD18642CAD940BF07B0F0BCBB46CA
:100DE000B246A946A046F0BD0E61EDE762696B0010
:100DF00092465B19DB009A4453469E68DF6800F018
:100E00002DFC8F42BADC00D103E1002F00DAE8E0CC
:100E10005246534652691B699346049A934200D145
:100E2000D9E052460821605E5288000459461043BA
:100E30009847009001910099019A0B00100013430C
:100E400000D1CEE013000A00B61A9F41002806DB4D
:100E50007A4800F003FC009E019F36184F4153462C
:100E60009E60DF6000229A5E002A00DA86E7530067
:100E700099186069C900411802938B68C9689B463C
:100E8000B94200DD7AE702D1B34200D976E7082300
:100E90009C46A444059565462281A446029B2C00ED
:100EA00006E053009918C90041188D68C968AB461F
:100EB0009B18DB00C318B94206DC00D1B3E01C006C
:100EC0000023E25E002AECDA230064469C46534687
:100ED0001A806346059D1D80A3881BB2002B00DA93
:100EE00051E72269EFF3108172B61368002BFCD032
:100EF000BFF35F8F0123A7885B42A3803FB22369C2
:100F0000BFF35F8F00221A6081F31088002F00DA90
:100F100039E72300083322009A4666697B00DB1913
:100F2000DB00F318996850468C460824115FDD6891
:100F3000002910DB029306E0AB4244D00023E15EBF
:100F40002000002906DB4C006418E4003419E36833
:100F5000AB42F1DD029B078000201F5E1980002F4D
:100F6000DCDA1400A379002B00D110E70023A37171
:100F700026000823E15E08364B1C00D12CE7080050
:100F8000A246656902E03E004B1C1AD04B005B187C
:100F9000DB00EF180A008C46E95E7B881BB2002B51
:100FA000F1DA01235B42DC17BB60FC60824205D0B2
:100FB000534631801B893B8053461A8160464B1C47
:100FC000E4D15446E5E6A3686345B7D9C2E76B1C94
:100FD00000D0EAE6F8E65B4658461B6998470028C9
:100FE0001BD153461B8822692381EFF3108372B60D
:100FF00011680029FCD0BFF35F8F514662880A80D8
:1010000022696580BFF35F8F0021116083F3108830
:10101000B4E6864200D8F8E6B0E65B461A685B683C
:101020000092019307E7B34500D848E74CE7C04674
:101030001C3500203C700540410D0010004005406B
:1010400070B52E4C2569002D04D00A212C48FFF7DD
:1010500009FE70BD2B4E0321300000F0F5FAE6606A
:10106000FFF70CFB284B03229C46D02322701B0663
:101070001B6801216370254B6044A3600F2380002F
:1010800020610220638063694942A1801980023196
:10109000198647311D83585218315A5275325C39BE
:1010A000995218320131995218320131995218323D
:1010B00001319952083518329D5202311832995235
:1010C00018320131995218320131995218320131D6
:1010D00099521832013199521832013199520C4B00
:1010E0000C49DC6001303562FFF73EFB0121032033
:1010F000FFF702FB084B1D60A7E7C046E40F002086
:101100003C3600200040054040000034FFFF100046
:101110001C350020410D0010386005400048704724
:10112000E40F0020F8B51F0008AB1B780400160080
:10113000002B08D100F09AFA32003B00121A8B41C2
:10114000002B00DA52E02269EFF3108072B61368C8
:10115000002BFCD0BFF35F8F0223E15E63694A007E
:101160005218D2009B182269002936DB1D88658041
:10117000BFF35F8F0025156080F31088069A9E608C
:10118000DF601A61079A5A615A8801325204520C80
:10119000101C002A1FD082B2588008041043266910
:1011A000EFF3108772B63268002AFCD0BFF35F8F6E
:1011B000A2881A80A1802369BFF35F8F00221A6082
:1011C00087F310880A4923788C4601329A40E368F5
:1011D00063441A60F8BD0120DDE7BFF35F8F002391
:1011E000136080F3108801204042F3E70020F1E70C
:1011F0003C20000070B501000469EFF3108C72B65A
:1012000020680028FCD0BFF35F8F02200D5E4C6980
:1012100068004019C00024180869002D36DB2688B4
:101220004E80BFF35F8F002606608CF31088E3606A
:1012300063880498013320615B0405985B0CA2600D
:1012400060611A1C002B1FD093B2280462801843DF
:101250000A69EFF3108C72B61368002BFCD0BFF351
:101260005F8F8B8823808D800B69BFF35F8F002297
:101270001A608CF310880B7801329A40CB680849C9
:101280008C4663441A6070BD0122DDE7BFF35F8FB7
:10129000002303608CF3108801204042F3E7C0462E
:1012A0003C20000010B543890A1493421ADD530014
:1012B0009B184269DB00D3180469EFF3108C72B6F7
:1012C0002268002AFCD0BFF35F8F5A88090494B2C9
:1012D000090C8A4208D00369BFF35F8F00221A60AD
:1012E0008CF31088002010BD8022120214435C8011
:1012F000012302698371BFF35F8F002111608CF3BA
:101300001088044902788C469340C26801206244E8
:101310001360E8E73C20000040787047F0B5C6460F
:1013200000B582B0040000F0A1F9FA2206000F0017
:10133000200000230021920000F004FE8019794172
:1013400004000D1E02DA01242E4D64420626764268
:10135000F71736196F41AF4214D811D000F086F953
:1013600032003B00121A8B41002B15DC002B46D0BB
:101370002000290000F0B8F902B080BCB846F0BDEA
:10138000A642EBD90026002700F070F932003B009E
:10139000121A8B41002BE9DD00F068F932003B00A6
:1013A000121A8B41002B0ADB00230193164B3200EB
:1013B000009316483B00FFF71DFF0130D8D00023F3
:1013C0003900B0469C46124A1248536A994204D8E2
:1013D000966A4645CCD29942CAD10668EFF3108787
:1013E00072B63368002BFCD0BFF35F8F0368BFF386
:1013F0005F8F66461E6087F3108820BFE5E7002AEE
:10140000B6D0C9E7FFFFFF7F110D0010E40F0020E9
:10141000004005403C360020F0B557464E46DE46BB
:101420004546E0B506000F0085B0EFF30583994609
:101430008B46002B12D0384900204B6ABB4206D3A2
:101440008A6ADB1B591E8B41B2424041184305B0EA
:10145000F0BCBB46B246A946A046F0BD2F4B9A460B
:10146000DB68984653461B784046039300F0F6F835
:101470004246039B040004339B009B580D001B1A3B
:1014800039003000001BA941894510DC0DD020BF78
:10149000214A0020536A5B45D9D3926ADB1B591E4F
:1014A0008B41B24240411843D1E78342EFD900F06B
:1014B000DDF832003B00121A8B41002B1ADB0023AF
:1014C0000193174B3200009350463B00FFF792FE0A
:1014D000011E0FDD104B5A6A5A451BD39B6AB3425B
:1014E00016D35046FFF7DEFE0B4A0020536A5B45D9
:1014F000ADD3D2E7084A0020536A5B45A7D300204A
:10150000926ADB1BB24240415A1E934118439EE748
:101510005A45E6D120BFE4E700400540E40F002033
:10152000110D0010F0B5CE464746110080B583B0CE
:1015300004009C460C9D194300D16CE06146DB170A
:101540000193009353401E00019B4B401F000098E5
:101550000199361A8F4163460A996B600B9BAC6008
:1015600029612A606B6100F081F8801979410029B6
:1015700002DA0120314940422269EFF3108972B644
:101580001368002BFCD0BFF35F8F0223E65E636914
:1015900072009219D2009B1822699046002E42DBFD
:1015A0001A886280BFF35F8F002247463A6089F352
:1015B0001088234A9860D9601A615A885D610132A7
:1015C0005204520C111C002A2BD088B23204024360
:1015D00059802069EFF3108772B601680029FCD0AA
:1015E000BFF35F8FA1881980A6802369BFF35F8F47
:1015F0000021196087F3108812482378844601314E
:1016000099400120E36863441960EA6003B0C0BCFC
:10161000B946B046F0BD00230126002701229C46B2
:1016200099E70121D1E7BFF35F8F0023136089F3AE
:101630001088012200205242E7E7C046FFFFFF7FEB
:10164000410D00103C20000010B5024A0248FEF790
:10165000AFFF10BD246A0010842000200300416AFF
:101660000A00986A596A8A42FAD17047034B596A4C
:101670000A00986A596A9142FAD1704700400540C1
:1016800070B504000D00174A536A1900966A536A30
:101690008B42FAD13000190024184D41AB4216D8C4
:1016A00013D0104B2A005B6A9D4203D90D494B6A47
:1016B0009342FCD3934207D10A4A02E0516A99420D
:1016C00002D1916AA142F9D370BDA642E9D9054B76
:1016D0005B6A1C005A1CEFD0012201246442E5170A
:1016E0005242E3E700400540064A536A9942FCD85B
:1016F00007D1044B02E05A6A914202D19A6A9042A1
:10170000F9D8704700400540F8B5040006200D00E8
:1017100000F078F9002844D0374B3849E3185A1EB6
:1017200093418022120494465B429B0D344A9B05F0
:1017300063441360334A136018000A689043FBD176
:101740002D4B314AE31859424B4180215B0049003F
:101750000620995200F056F92900C00000F060FB05
:101760000130C3091ED1402701226262A362266BA9
:10177000F30722D4E36A254B0620E51800232B60EB
:10178000266300F03FF93900800000F049FB702328
:10179000E26A5A400E3313402B601D4B2363032330
:1017A000A364F8BD1B4A93421ED900231A4A1B4F5B
:1017B0006262A362266BF307DCD5194B144AE31867
:1017C0001A60656AA36A0620AD01ED1800F01AF9E7
:1017D000144900F025FBAD020100280000F020FBB9
:1017E0000021FFF74DFFC5E74006800E9F011A005C
:1017F0003F180300B9E7C0460080FCBF08C00040A6
:1018000000E0004000F00040483600202C100000AE
:1018100001030000FEFF0000FFFF0000C0FF3F00CB
:10182000303000004E0E0000F8B5DE464E465746FA
:101830004546E0B58B4605000A991800160000F0F1
:10184000EFFA0A9B6C001F02324B64199C46A400FD
:101850006444636881469F4200D967602B1FDBB2F6
:101860009846012B30D9C02380229B01E318120136
:101870001A60294BAD0059599A4600291BD17301B2
:10188000E026226853401E40802342465B01E31855
:101890001E60012A30D9802380229B01E3181201A7
:1018A0001A6053464A4667605A51F0BCBB46B2467E
:1018B000A946A046F8BD586900F0B2FA01304300CD
:1018C0001B18033BFDD2DAE75B46012BCBD1C023CB
:1018D00003229B01E3181A60023AA3681A42FCD063
:1018E0007301E0262268AD0053401E4080230A4A5F
:1018F0005B019246E3181E605A462168514003225C
:101900000A401A6001225B469A40A3681A42FCD042
:10191000C1E7C0460080004088200020F0B5464660
:101920004F46D646C0B51F00344B44009C46241891
:10193000A4006444636888461600FF2B02D8802305
:101940005B006360031FDBB29A46012B30D9C023D2
:1019500080229B01E31812011A60294B8500595916
:10196000994600291BD17301E026226853401E408E
:10197000802352465B01E3181E60012A30D9802380
:1019800080229B01E31812011A6080235B006360D0
:101990004B465F51E0BCBA46B146A846F0BD586917
:1019A00000F03EFA013043001B18033BFDD2DAE79A
:1019B0004346012BCBD1C02303229B01E3181A60BD
:1019C000023AA3681A42FCD07301E026226885001F
:1019D00053401E4080230A4A5B019146E3181E6073
:1019E00042462168514003220A401A6001234246C0
:1019F0009340A2681342FCD0C1E7C046008000407B
:101A000088200020014B8000C058704788200020AB
:101A1000F8B5040021481E0017000D0000F000FA80
:101A20000100380000F0FCF9069B36041B031E433E
:101A30002368002B20DB1A4B1A49E3185A1E9341E6
:101A40008022920194465B421B0B174A1B0363449E
:101A50001360164A13601F000A689743FBD1144BAA
:101A60002560E2182123A06013602368002BFCDAB4
:101A70000823E6601360F8BD3F2322681340AB42A1
:101A8000D9D1A3681B051B0D8342D4D1EE22E36894
:101A9000D2021340B342CED1EDE7C046001BB700DF
:101AA0000040FDBF08C0004000E0004000F00040E2
:101AB0000430000010B580241C4BE4051C60002895
:101AC0001AD001231A4C18431A4BDC611A4C4440BB
:101AD0001C62596298628021144BC905196017482D
:101AE00017490860E021C9041960002A07D1802243
:101AF000144B12061A6010BD0E4BD861EBE7530170
:101B00009B1A9B009A18802312015B049A4209D207
:101B100013000D490B60074B5A608022094BD20518
:101B20001A60E8E7094B1A00F3E7C04600B0054029
:101B3000D3C007B0008005402D3FF84FFCFF0100E7
:101B40000820014000A00540F4340020FFFFFF0002
:101B50008023024A9B000B43D362704700800540FC
:101B6000002310B50100988A1B8B984710BDC04612
:101B7000162310B50100188802331B88984710BD42
:101B8000F8B54746CE4680B50F1E18D014239946A7
:101B9000043304000025012698464B461888434626
:101BA00021681B88984701C4431E984101350640AF
:101BB000AF42F2D13000C0BCB946B046F8BD0126F4
:101BC000F8E7C046002370B504000D00988A054967
:101BD0001B8B984703000020002C01DB0130A04044
:101BE0002900984755420000AA23064A1B011360AA
:101BF0008D235B00D3600449044B19605368002BAC
:101C0000FCDA70470040024000B0FA000060024079
:101C10007047C04610B50148FEF7B2FC486A001094
:101C200070B5074D074EB54209D20024013E761B20
:101C3000B60808CD984723000134B342F9D170BDEE
:101C4000406900107C690010054B064A06491A607D
:101C5000064A074B1A6010000B689843FBD1704787
:101C600000E00040BFCDFBFE08C00040FE7F3C000E
:101C700000F00040044BDB6C002B03D18022034BAF
:101C8000D2021A607047C046000011504C2011501B
:101C9000044A054B1A60054A1368DB018033FBD107
:101CA0007047C046FFFFFF0100F0004008C0004041
:101CB0004022034B9A675A671A67DA667047C04634
:101CC00000F0014010B5FEF7F7FC10BD70B5044DF3
:101CD000044CA968C022200000F090F9AC6070BDEF
:101CE00000ED00E000000020002310B5294C82B078
:101CF000A367FFF779FF0122274B1A60636C012B62
:101D0000FCD10322254B1A60224A936B012BFCD194
:101D1000013300930121224A22480433FFF778FE61
:101D2000052301210093204A2048FFF771FE00227D
:101D3000022104201E4BFFF7F1FD002201210520A6
:101D40001C4BFFF7EBFD0022002107201A4BFFF789
:101D5000E5FD002200210820174BFFF7DFFD80235F
:101D6000DB000093002200210920134BFFF75CFDEC
:101D70000022104B00210620FFF7D0FD0420FFF7C2
:101D800041FE0E4900F04CF801000020FFF7E0FE94
:101D900002B010BD008000403CB0004030B00040B8
:101DA000002F685900800240008C864700C0024026
:101DB000001BB70040597307006CDC0240420F0063
:101DC00001480421014B184700100020811B00101E
:101DD000124A936F9B0815D29066D166002905D0F0
:101DE000FFE7FFE7FFE7516F106F704704B58021F1
:101DF0000906C2175140002800D0C84304F060FD16
:101E0000002104BDF0B5146E556E576F166FFFF7C5
:101E1000E3FF1466556657671667F0BD000000D0F3
:101E2000114A936F9B0813D210665166002905D0A2
:101E3000FFE7FFE7FFE7516F106F704704B5002819
:101E400001D00020C04304F03BFD002104BDC0468A
:101E5000F0B5146E556E576F166FFFF7E5FF1466F9
:101E6000556657671667F0BD000000D010B50148F1
:101E7000FEF786FB546A0010132370B51D78012D00
:101E800019D014DD1D48FFF773FE06001C48FFF74C
:101E90006FFE1C4C80223100200000F0AFF8022DB4
:101EA00006D01948FFF75CFE184B186070BD154C42
:101EB000174BA364F5E7174B124C23606360A360D4
:101EC000E36023616361A361E36123626362A362F0
:101ED000E36223636363A363E36323646364A364D0
:101EE000E36423656365A365E36523666366A366B0
:101EF000E36623676367A367E367D9E7534400009A
:101F000053460000601700204C3300003835002095
:101F1000191F00106D1E001007B5604601880A0ADF
:101F20000230DF2AFAD1C9B2820804D3028840887D
:101F30000004104300E00068014A5050039007BDC0
:101F40006017002051434343C9188C46110C83B2DB
:101F50004B4310B4040C614392B280B250436243CD
:101F60001C041B0C001910BC59411304120CC0189E
:101F7000514161447047000010B50148FEF700FB75
:101F8000D4690010132310B510481C78FFF7F0FD3A
:101F90000100012C0AD003DD80220D4800F02EF84C
:101FA0000C48FFF7DDFD0C4B186010BD084C5422A7
:101FB000200000F023F82200084980322368002B1B
:101FC00000D1216004349442F8D1E9E7534600007F
:101FD0003C3500204C33000038350020791F0010BC
:101FE00001480421014B184710100020811B0010EC
:101FF000014B1B681847000010100020014B5B6864
:10200000184700001010002010B5002800D110BDA6
:1020100000F0C6F9FBE7C04610B5094A0300146892
:1020200084B0002C08D0012200910648524203A936
:10203000A047012004B010BD00F0FCF90020F9E732
:10204000F03400200920001000BEFDE7094A03001B
:102050001068002805D00849C3188B4207D81360C0
:10206000704706480449C31810608B42F7D9012015
:102070004042F5E7EC3000200000042070360020DC
:10208000030010B508001100002B05D1044B1A689D
:102090005B6800F023F910BD01204042FBE7C04619
:1020A000986B00100300013B10B508001400012BD1
:1020B00006D801230022210000F092F8200010BD74
:1020C00001204042FBE7C046012040427047C04625
:1020D000012040427047C046012040427047C04640
:1020E0000300022200209A424041704710B5FFF7DA
:1020F000ABFFC04670B5FFF793FD074D074EB542E5
:1021000009D20024013E761BB60808CD984723006B
:102110000134B342F9D170BD7C69001084690010AC
:10212000030010B5080011001B68984710BDC04699
:10213000F0B5C64600B5437D07000C001600002B25
:1021400046D0002A17DD0B780A2B24D000239846AE
:10215000012E13D001252900635C01350A2B26D0FE
:10216000B542F8D1464509DCA419013C23780D3B62
:102170005A4253413B7580BCB846F0BD4346E01817
:10218000A419F11A013C3B68984723780D3B5A4249
:1021900053413B75EFE7037D002BD7D102210F4858
:1021A0003B689847012EDFD001239846D2E7631E93
:1021B0005B5C0D2BD4D0884504DA4346C91AE0187D
:1021C0003B689847022105483B68A8469847C7E7FF
:1021D0000368110020009847CDE7C046F46B00105B
:1021E000F0B54546DE464E465746E0B583B09146CB
:1021F0001C0080460D00FFF739FA0023304A121800
:102200004B41002B02DA01222E4B52422E4908008C
:102210008A4604F075FB07006B1C03D1404603F0AF
:10222000CFFD0500002C27D0284E294B1C68002C20
:1022300018D04B46002B21D1264B994602E0246949
:10224000002C0FD02368002BF9D04B461B68002BC5
:1022500001D09C42F3D120002A004146B0472469B6
:10226000002CEFD1002F26D1280003B0F0BCBB46D4
:10227000B246A946A046F0BD174ED6E7154B994683
:102280000A239B4602E02469002CEBD02368002B34
:10229000F9D04B461B68002B01D0A342F3D12A0092
:1022A00041462000B0476B465A462000DA71D91DDE
:1022B0000122B047E7E7504604F0F2FAD4E7C046FF
:1022C00040420F00FFFFFF7FD0150020312100109A
:1022D000DC300020E830002021210010F8B55746FE
:1022E0004E464546DE4698461A4BE0B59B461A4B8D
:1022F00007000E0091469A46184D5B461C68002C5C
:1023000003D115E02469002C12D02B68002B01D0DA
:10231000A342F7D1A368002BF4D0310038009847CE
:102320000028EFDDF0BCBB46B246A946A046F8BD8A
:1023300053465B6A984508D85246926A4A4502D38A
:1023400002204042EEE79845FAD101200021FFF734
:1023500097F9D2E7DC30002000400540E83000204B
:102360000A4A1368002B05D10CE01A001B691032D1
:10237000002B07D08342F8D1002902D118691060E0
:10238000196170470029FCD01060FAE7DC300020AA
:1023900010B500F03BF900F0A5FB012010BDC046D0
:1023A000F0B5CE46474680B583B06B460600DD1DCE
:1023B0002870FFF75BF90023194A12184B41002BD4
:1023C00002DA0122174B524217490800884604F0EE
:1023D00097FA164B81461C68002C14D0144F02E06B
:1023E0002469002C0FD02368002BF9D03B68002B08
:1023F00001D09C42F4D1200001222900FFF798FE71
:102400002469002CEFD14B46002B05D1300003B0DE
:10241000C0BCB946B046F0BD404604F041FAF5E70D
:1024200040420F00FFFFFF7FD0150020DC3000206E
:10243000E830002070B5040003F0C2FC0123010065
:10244000050001222000FFF7CBFE084B1C68002C82
:1024500006D06368002B05D098472469002CF8D17A
:10246000280070BD2469002CF3D1F9E7DC3000208E
:10247000F0B5002915DD0E4B0D271A680D4B0E4CDB
:10248000D3185D426B41451820215B001E5F047824
:10249000A64207D093691942FCD101301460A842CA
:1024A000F5D1F0BD93691942FCD11760F2E7C0463F
:1024B0004C3600200080FCBF48360020204B70B511
:1024C00004000D1E1E682ADD002010211D4B013C5A
:1024D0001A689369194214D1013093691942FCD1E9
:1024E000136823548542F4D1002E08D050239363FF
:1024F000516B183B0B4014498C4662441360280012
:1025000070BD002E08D050239363516B183B0B40D5
:102510000D498C46624413600028F1D10CE0002E76
:102520000AD05022074B1B689A63596B183A0A402D
:1025300005498C4663441A6003204042E0E7C046E8
:10254000702000204C36002034100000064B10B5DF
:102550001B68002B06D00021044A12689163044ACC
:102560001068984710BDC046702000204C360020EF
:10257000782000200822034B19688B691A42FCD18D
:102580007047C0464C360020F8B51A4F1A4B3A68CF
:102590000500D31858424341184E14331C003368C9
:1025A000002D02D0002B0FD0F8BD002BFCD0002155
:1025B00020009563FEF7A0F820001149FEF7F8F916
:1025C000104B35601D60EFE70E4B200019600C4981
:1025D0003560FEF7C9F801212000FEF78DF8502282
:1025E0003B689A63596B183A0A4007498C46634422
:1025F0001A60D9E74C3600200080FCBF7020002014
:102600004D25001078200020341000000D4B10B52F
:102610001B780D4B0D4C1B780D4B02211B780D4B7D
:1026200000202360FDF764FF02210120FDF760FF19
:10263000E12120684902FFF767F801210648FFF70A
:102640008FFE10BD986E0010946E00104C36002066
:10265000906E001000400340201000200123012153
:10266000084A1360084A1360084A08001368984330
:10267000FBD1074A11608021490013680B42FCD04E
:102680007047C04600E0004000F0004008C0004035
:1026900000C0044010B5064B064C82B00100009308
:1026A00000220B232000FDF7A5FF02B010BDC0469D
:1026B000DC6A0010623600207047C0460022014BE1
:1026C0001A7070476C3600204B790020FF2B0BD11D
:1026D0008B79002B08D1CB79012B05D1082A03D99E
:1026E000024B8A7809301A707047C0466C36002059
:1026F0000120704710B5012913D11249537910797F
:1027000009781B0203430020994200D010BD537882
:10271000012B08D0022BF9D1642200210020FFF701
:10272000C9F90120F2E7D37891781B021943480ACE
:10273000DB0501D4012040427F238A05D20F1940D6
:10274000FFF740FA6C36002000487047DC6C001040
:1027500070B5050014000120012909D1537800202B
:10276000012B05D1637912791B021343072B00D08B
:1027700070BD21002800024A9F3301F055FAF7E7A7
:10278000346C00100123037000487047146C001073
:102790004B780A781B0213438A7810B512041A4347
:1027A000CB781B0613439622D200934200D010BD73
:1027B0000022012011004042FFF704FA024B18608A
:1027C000024B19607047C046742000207C20002016
:1027D00010B5024B1878FDF7ADFF10BD6D36002027
:1027E000154B70B51A68002A22D0EFF3108172B62B
:1027F00010680028FCD0BFF35F8F00200F4A59609B
:1028000010701B68BFF35F8F186081F3108800247D
:1028100000250B4E3078FDF781FF002804D10024FD
:1028200000252900200070BD3078FDF783FFF8E710
:10283000FA240025A400ECE7143500206E360020B1
:102840006D36002070B5040000200E0001F00AFB78
:10285000002834D0002001F01BFB00282FD0FEF709
:1028600005FF0023174A12184B41002B16DB164DAB
:10287000280004F045F8002821D0002001F0F2FAE9
:1028800000280FD101200021404200F001FD032467
:102890006442280004F004F8200070BD01220B4BB4
:1028A0005242E4E7002001F0F3FA0028EAD02100C8
:1028B0003200002001F0F6FA041EEAD1E7E7032413
:1028C0006442E9E740420F0040360020FFFFFF7FEF
:1028D00010B5FEF7CBFE00230D4A12184B41002B1A
:1028E00002DA01220B4B52420B4C200004F008F894
:1028F00000280CD001200021404200F0C9FC00203B
:1029000001F014FB0028F5D1200003F0C9FF10BD31
:1029100040420F00FFFFFF7F40360020F8B5DE4643
:10292000574680B505000C00FEF7A0FE0023364A8E
:1029300012184B41002B02DA0122344B5242344927
:1029400008008A4603F0DCFF002803D1C0BCBB4668
:10295000B246F8BD002001F085FA00284AD00026D2
:10296000002C43DD2B4B9B4614E0A919002001F0FD
:1029700017FB070001200021404200F089FC0020E5
:1029800001F0D4FAFEF772FE224BF6191860596076
:10299000B4422BDD002001F023FBA71B0200B8424C
:1029A00000DD3A00002AE0D101200021404200F081
:1029B0006FFC002001F0BAFA002001F053FA002861
:1029C00014D0002001F00CFB0028E1D1FEF74EFEF0
:1029D0005B460F001A685B68002184460E48121897
:1029E0004B419F4202D8D3D19445D1D9504603F0F0
:1029F00057FFABE700200021064B18605960504696
:102A000003F04EFFA2E7C04640420F00FFFFFF7FEA
:102A1000403600205817002020A1070030B52A4C6E
:102A200085B00021200003F053FF00281CD1274B64
:102A30001A68002A16D0EFF3108172B610680028C9
:102A4000FCD0BFF35F8F01242148596002781B68D6
:102A5000D2B20470BFF35F8F0020186081F310883A
:102A6000002A17D005B030BD01200021404200F0FF
:102A70000FFC002001F00CFA0500200003F010FF0D
:102A8000002DEFD0134B1B68002BEBD0124A1068BF
:102A90009847E7E7FEF742FB0400FEF7E7FDFA225E
:102AA0000023920012184B41002B02DA01220B4B3B
:102AB0005242012102910021019109492000009117
:102AC000FEF730FBCEE7C04640360020143500202C
:102AD0006E360020742000207C200020FFFFFF7F46
:102AE000E1270010D02310B51B0684B01C68FEF748
:102AF00015FBFEF711FCA04202D0002004B010BD6F
:102B0000294B002100201B7801F05EFD2748036857
:102B1000002B45D00120FEF78FF8FF23244C2549D8
:102B200020701840FDF720FE20780121FDF7E4FD1C
:102B30000520FDF707FE002824D1082200211E48A9
:102B4000FFF756FAFEF7EAFA0400FEF78FFDFA22C5
:102B50000023920012184B41002B02DA0122174B7E
:102B6000524201210291002101911549200000915A
:102B7000FEF7D8FA0028C0DB12480121FFF7F0FB6E
:102B80000120BBE70120FDF785FD0B4B010018007C
:102B9000FEF7B4F8002205200B49FDF70FFEEBE726
:102BA000FEF790F8B6E7C0469C6E00104036002055
:102BB0006D3600201D2A001014350020FFFFFF7F16
:102BC000E127001038100020D1270010004870477E
:102BD000786D001000487047246D001010B5040097
:102BE00017480378002B20D0002C06D1154B16482F
:102BF0004380063BFF3B038010BD052C1DD8134BC3
:102C0000A400E05812490123013804E001330A808E
:102C10000231142B0DD0C25C002AF7D1C022DBB2E6
:102C20005B00920008481343E5E7112100F01AF811
:102C3000DAE7CA2304489B00DDE70020DCE7C04652
:102C40005036002009040000B02000200C6D001058
:102C5000B220002010B5024800F0D8F810BDC046E0
:102C60002C35002030B54B1E012900D1A7E0664A63
:102C700011780D092C0030349F2900D9A2E004708E
:102C8000012B00D1BEE00F21147821400C0030341C
:102C9000092900D998E04470022B00D1B2E05478A1
:102CA0002509290030319F2C00D990E08170032B39
:102CB00000D1A7E00F2121400C003034092900D9B0
:102CC00087E0C470042B00D19CE09478250929008A
:102CD00030319F2C00D97FE00171052B00D191E0AC
:102CE0000F2121400C003034092900D976E04471CD
:102CF000062B00D186E0D4782509290030319F2C9D
:102D000000D96EE08171072B00D17BE00F212140BB
:102D10000C003034092966D8C471082B00D171E049
:102D200014792509290030319F2C5FD80172092BB5
:102D300068D00F2121400C003034092958D8447242
:102D40000A2B5FD054792509290030319F2C52D8A5
:102D500081720B2B56D00F2121400C0030340929F1
:102D60004BD8C4720C2B4DD09479250929003031F1
:102D70009F2C00D9073101730D2B43D00F21214027
:102D80000C003034092901D937310C0044730E2B63
:102D900038D0D1790C09220030329F2900D907326E
:102DA00082730F2B2ED00F220A4011003731092ACF
:102DB00001D830321100C173102B23D01030002302
:102DC000037030BD07345AE737310C0063E7073131
:102DD0006CE737310C0074E707317DE737310C00C1
:102DE00085E707318EE737310C0095E707319DE71E
:102DF00037310C00A3E70731AAE737310C00C47262
:102E00000C2BB1D1C018DAE72C35002010B588B0F2
:102E100004000D2200216846FFF7EAF80D22002188
:102E200004A8FFF7E5F84B236A466846137004A927
:102E30000D2203F02DFD1521082220006944FFF723
:102E4000DDF808B010BDC046F8B500F047F90C2316
:102E5000194DFF22AB6705201849FDF7AFFC184C50
:102E6000402200212000FFF7C3F84027002301265D
:102E70002121144A66702783A260136063545F3176
:102E8000618445396354104A10496360E2602787C2
:102E9000A1620B606362E26203F00AFD80239B057E
:102EA0002E64EB6490230A4A0120EA508022094BE9
:102EB0005202DA64F8BDC04600001150F904002047
:102EC000F03000208400105000011050800010509D
:102ED00010D001000020115010B501210520FDF790
:102EE0000BFC10BD10B500220021024800F016F9BD
:102EF00010BDC04610310020044B1970002904D0C9
:102F000080219023024A8902D15070476536002003
:102F1000002011500B785B0602D14B78052B00D0B6
:102F200070478A78014B1A60FAE7C04600001150DA
:102F3000F0B5C646C87800B58007830F1800012B8E
:102F400060D08F780A794B797F213940FC091B02C8
:102F50004E001343334D32195201AA1897700127BE
:102F60006740577000275B055B0DD7701383D076E1
:102F7000B846CA00012C32D02B4FBC468F016244A8
:102F8000BC46AC446746BA6047461760002932D059
:102F9000264AC90090466246414451603F223F3371
:102FA0009343022837D0224937190A687F01D31882
:102FB0000B602049EF19FA608B422ED83619760142
:102FC000AD19EB7E1C499B064A4013438022120632
:102FD00013436A681360012080BCB846F0BD174FE8
:102FE000BC468F016244BC46AC446746BA62474661
:102FF0001760002908D1002364012C196360104B6D
:10300000E360E8E70020E7E70B4AC9009046624624
:1030100041445162C2E75B00C5E7FEF7FBFDFA6879
:10302000CCE7C046F030002084001050040010505F
:10303000F8340020FF0F1050000010508000105096
:103040000001105010B503F033FC10BD10B57F2007
:103050000C0020404000E409110000191A00034B45
:103060004001C01800F05AF8012010BDF0300020D7
:103070007F23180000B5084083B00B4204D14B42B7
:103080004B41084A013393668022C9094000064B30
:10309000401840010021C018120103F041FC03B0A8
:1030A00000BDC04600201150F03000207F221300E8
:1030B00010B50B400A4200D110BDC9095B005B1876
:1030C00004485B01C018002300220349C37003F0C9
:1030D00027FCF1E7F0300020FFF7FFFF80220A4BCA
:1030E000520410B51A60094B09491A6010000B68A8
:1030F0009843FBD18022002152010648FEF778FF59
:103100000922054B5A6710BD00E0004000F0004066
:1031100008C000400000105000001150002310B5FE
:10312000C3820133828283760161040003F0E0FBF5
:10313000002804D080219023074A8902D150200022
:1031400003F0F6FB002802D00123237710BD2000F6
:1031500003F0DEFBFAE7C046002011507047C0467E
:103160007047C04600207047002070477047C04637
:103170007047C0467047C0467047C046024B5878FB
:10318000431E9841C0B27047881B0020024B18783C
:103190004007C00F7047C046881B0020F0B5D646D8
:1031A0004F464646C0B52F4B07009A461B780E0087
:1031B000FF2B50D1002941D0002154222A48FEF78C
:1031C00017FF0022294C2A4B20001A70FDF77AFDC8
:1031D000284B1C60284C2000143CFDF781FD20008A
:1031E00001F0FAFD254B264D1C60264B002B04D028
:1031F0002800FFF7C7FA244B1860244900248946A9
:103200002149002388462A7810E043461B68620162
:103210009B18002B12D05B68002B0FD098472A78A0
:103220000134E4B2511C2300A14209DBA242ECD8D4
:103230009B1A5B014B445B68002BEFD100200BE035
:103240005346310038001F70FFF7FEFD0028F5D00F
:103250003800FFF741FE0120E0BCBA46B146A8465F
:10326000F0BDC0466C100020881B0020801B002091
:1032700066360020DC1B002064100020E01B0020CC
:103280006436002085270010D8190020346E001005
:10329000F0B5DE4657464E464546E0B5C84B91B0C0
:1032A00002931B78FF2B00D13EE1C64BC64E9B46D6
:1032B0005F46C64B0DAC0193C54B009335686A69F8
:1032C000EFF3108172B61368002BFCD0BFF35F8F51
:1032D000A9612800210001F0AFFB6A69AB69BFF367
:1032E0005F8F0021116083F31088002800D11BE15B
:1032F0006378082BE2D89B00FB589F466368002B3D
:10330000DCD0A0689847D9E77F222179AF4D0A40E9
:103310005300EB189846C8098044404601233030DA
:1033200005799D430571057903339D430571002A95
:1033300000D100E14346A74A1B7D1278934200D397
:10334000EFE0A54A5B011568ED18002D00D1EBE018
:10335000A36862792078AD69A847AFE79F4A1378E0
:10336000002B00D1E0E01378013BDBB2137013783F
:10337000002BA3D10122954D01212B78042013436A
:103380002B703423EA5C8A43EA54EA5C8243EA54B1
:103390000133EA5C8A43EA54EA5C8243EA542378C4
:1033A00000209B4600F09EFC602223791A40602A90
:1033B00000D1EFE0402A00D1F5E0DB06DB0E012B67
:1033C00000D113E1022B00D1C7E0002B00D0E1E0D7
:1033D000202A00D11CE2002A00D0DBE06379092B0F
:1033E00000D9D7E07E4A9B00D3589F46774D2B7873
:1033F000DB0700D462E7FFF7BFFE5FE7019BDB78E6
:10340000DB0700D45AE76068FFF7AAFE56E76F4D66
:103410002B78DB0700D451E728780007C00FFFF7AF
:10342000A9FE4BE723786A4999468B46694B6A495E
:1034300098468A4639001A7847460023B046002548
:103440004E46894610E053461B686A019B18002BC4
:1034500000D176E0DB68300098473A780135EDB26C
:10346000511C2B008D4244DC9542ECD39B1A5B012E
:103470005B44EFE7237858499946564B8A4698466D
:103480003100BB464E461A78002500234746894640
:103490000FE053461B686A019B18002B55D0DB6870
:1034A000300098473A780135EDB2511C2B008D421F
:1034B00007DC9542EDD39B1A009A5B019446634466
:1034C000EDE7019D542200212800FEF791FD102216
:1034D000FF214448FEF78CFD28002022FF211430F4
:1034E0004E465F46FEF784FD00F0F2FBFFF740FE1C
:1034F000E4E6364D542200212800FEF779FD102223
:10350000FF21281DFEF774FD28002022FF21143022
:1035100046464F46FEF76CFD00F0DAFB2379AB70B0
:10352000CCE6501C984213DA11B0F0BCBB46B24650
:10353000A946A046F0BDA3686279207800F0E6FBBA
:10354000BCE646464F46214DE6E74E465F46CBE792
:103550001F4D9B1A5B015D19FAE67023217A0B421D
:1035600018D1C80982460F330B405B0098461948B2
:10357000EB1853441B7D00789946834266D2164867
:103580005B01006881469944002A00D15FE14B4607
:10359000002B68D120780021FFF76AFD8021207878
:1035A000FFF766FD8AE6104800F09CFB01215846B3
:1035B0000EAAFFF7CDF8002800D07FE6EAE7C04664
:1035C0006C1000208C6D0010E01B0020881B002078
:1035D000346E001064360020D819002066360020B2
:1035E000B06D00108C1B002051270010237A0F2B88
:1035F000D0D8CF4AEB181B791578AB423ED3691C63
:103600009942C7DB5D1BCB4B6D01ED18686900F07B
:1036100069FB012158466B690EAA9847002800D023
:103620004CE66022150023791D401A42B2D163791D
:103630000A3B012BAED800F055FB63790A2B00D171
:1036400099E158460EA900F0D9FA37E6431C4B45DC
:1036500000DAF7E04B461B1A5B019946B5488144F6
:10366000002A00D1F3E04B46586900F03BFB4B4683
:10367000012158465B690EAA98479CE7AE4A5B0158
:103680001568ED18002DC1D184E7A37999466B78B0
:103690009945D6D06B78002B00D033E14B466B7048
:1036A000002B00D12BE148460138C0B2FFF792FA57
:1036B000002800D17EE143780793022B00D079E106
:1036C0000122C179B1468B11491113400A403021C2
:1036D00012015B0113432A78A8468A4313432B70D7
:1036E00009239A4682445646BA46C37882781B021A
:1036F0001343C31805938E4B04938E4B08938E4B44
:1037000009938E4B0A93059BB34200D855E1737819
:1037100001220B2B03D13378F278F6187378042B3F
:1037200000D044E1059B00279B1B9BB20693049BA2
:103730000B921D78002303931BE0099A7B01156807
:10374000ED18002D00D132E1310058462B69069A60
:1037500098478446082803D9069A824200D313E189
:10376000049B01371D78FFB26B1C03979F4200DD5D
:103770001DE1BD42E1D8039B5D1B089B6D019C468A
:103780006544E1E76B780CAA0232137058460123B6
:103790000EA900F049FA91E5E3881A0AD8B20F2A77
:1037A00000D9F7E666499300CB589F460EA800F073
:1037B0009FFA5846A179FFF795FB02222B78134315
:1037C0002B707BE5E388012B00D0E3E608222B7801
:1037D000584693430EA92B7000F010FA6EE50220B4
:1037E00029780CAB9A1C8B068908DB0F01400B4330
:1037F0001380584602230EA900F016FA5EE5E3880E
:10380000012B00D0C6E608222B7813432B7018E753
:10381000237A0F2B00D9BDE6EB181D79444B1B789A
:103820009D4228D2444B6D011B685D19002D00D1CB
:10383000B0E6686900F056FA012158466B690EAA95
:103840009847B8E6002A00D0A4E60023994662799A
:103850000220130003928343012B15D0002A00D0CD
:1038600098E62B004344534430331B790CAA9B0742
:10387000DB0F0232BCE75A1CAA4200DA8AE6ED1AD4
:103880002C4B6D01ED18D4E7E388002B12D1029B7D
:103890001878039B012B23D0FFF7EAFB4346022154
:1038A000EB18534430331A790A4301211A711A79FB
:1038B0000A431A714B46002B00D1FFE4586900F00F
:1038C00011FA4B4601215B690EAA58469847002021
:1038D00000F008FA3523EB5CDB0700D5EEE4B0E638
:1038E000FFF7E4FB43460221EB18534430331A79C7
:1038F0008A431A711A7903998A431A71DAE7FFF732
:1039000037FC9EE600215846FFF7F6FA5846FFF7C7
:1039100099FBAB78074903930491054B06499846F8
:103920001A780591002329001D008A461BE0C04635
:1039300064360020346E0010D81900209C1B002033
:10394000D86D0010059B6A011B689B18002B4DD099
:10395000DB685846984743461A780135EDB2511C4A
:103960002B008D422EDC9542ECD39B1A049A5B010E
:1039700094466344ECE70CAB9A1C584601230EA90D
:10398000157000F051F999E40B9A012A4FD0002AE2
:103990003CD00023B07804E00133DBB20F719342D6
:1039A00034D2C118C9B241440D79FF2DF4D04E462E
:1039B0004546574600236B70ECE54E465746FFF7E9
:1039C000D5FB3EE65546542200212800FEF710FBA9
:1039D0001022FF21281DFEF70BFB28002022FF21CB
:1039E0001430FEF705FB039BAB7057E65546FAE72C
:1039F000FEF7AAFE021E00D1CCE5D37891781B0217
:103A00000B4358460EA900F00FF9D4E565463B007C
:103A10002A0031000A9800F07FFEAC46049B039A0E
:103A20001B7866440133934200DB6CE6BFE7174B1B
:103A300029699942ADD1079AABE7FFF793FB021EC4
:103A400000D1A7E5584613780EA900F0EDF8B2E5CD
:103A50002189FFF7C3F8021EF4D19BE5022A0FD09B
:103A6000FFF782FB021EC8D194E5FFF7AFF8021EF4
:103A700000D18FE5122358460EA900F0D5F89AE53B
:103A8000FFF7A8F8021EB8D184E5C046E140001057
:103A9000F8B557464E46DE4645460C00E0B51600E2
:103AA0001F00002A3CD0702398461E4B00259B46E1
:103AB0001D4B9A461AE05B461B78200099465346F8
:103AC000997800F0EBFD00281CD021004846FFF754
:103AD0002FFA002816D0A378DA09012A19D00A9AF9
:103AE000013513702378E418B54219DA6378052B91
:103AF00008D1E3789B079B0FBB4203D14246A378D2
:103B00001A42D8D00020F0BCBB46B246A946A04617
:103B1000F8BD0B9A013513702378E418B542E5DB44
:103B20000120F0E76C100020881B0020702270B587
:103B30008B780C001A4201D0002070BD064B20008B
:103B40001D78064B997800F0A9FD0028F4D02100DB
:103B50002800FFF7EDF9F0E76C100020881B00202B
:103B60000B007F2010B51840DB0934334000044AB5
:103B7000C018044B1168C01800F04CFD10BDC046C1
:103B8000DC1B0020881B00200B007F2010B5184094
:103B9000DB0934334000044AC018044B1168C018D4
:103BA00000F060FD10BDC046DC1B0020881B00201B
:103BB00070B57F240F480C4064000419CD096419C6
:103BC00030342079C00701D5002070BD0126257949
:103BD0000948354300782571FFF738FA0028F4D1F9
:103BE0000122237993432371237903329343237171
:103BF000EAE7C046881B00206C10002070B5094C15
:103C00000600082220000D00FEF7F8F900238021AD
:103C1000E360A3602B783000994300220023FFF774
:103C2000C7FF70BD681B0020F8B5CE4647469046DA
:103C3000254E80B58146082230000D001F00FEF79A
:103C4000DDF94346B3600023F381EC79AB792402BC
:103C50001C43231CBC4200D93B1C9FB2B381002CE7
:103C60000DD0002F17D04246002A2BD0402F1BD852
:103C70009FB233787F2B1CD80021144A0FE080219B
:103C80002B780022994348460023FFF791FFC0BCE0
:103C9000B946B046F8BD7F230022317899433B00F6
:103CA0004846FFF785FFF2E740239FB233787F2B2A
:103CB000E2D9064C3A0041462000FEF79FF98021E8
:103CC0002200ECE70020E2E7681B0020281B002010
:103CD00010B5142200210248FEF78AF910BDC04633
:103CE000681B0020014B18617047C046681B00200C
:103CF00010B5054C010008222000FEF77FF90023D3
:103D0000A360E36010BDC046681B002070B5384C4E
:103D10001D0023780600DA09C9098A4210D0002064
:103D2000002D00D070BD21003000FFF7F3F82369AB
:103D3000002B03D022000321300098470120F1E737
:103D40007F2B06D8A068002834D02A002949FEF726
:103D500055F9E289A1685219E38892B24919E281C2
:103D6000A160934214D03F2D12D9A389981A051C43
:103D700080B240282AD82078ADB27F2828D80021E8
:103D80009A4232D01B4A2B003000FFF711FFC9E7DF
:103D90002369002B05D0220002213000984700281B
:103DA0000AD0802123780022994330000023FFF7B6
:103DB000FFFEB7E70020B5E700213000FFF758F914
:103DC00030008021FFF754F90120ABE74025D2E70E
:103DD0009A4207D0074C2A002000FEF70FF98021F5
:103DE0002200D0E780210022CDE70022CBE7C046A9
:103DF000681B0020281B002070B50400FFF7BEF9E7
:103E0000002800D170BDFFF7C1F90028FAD1C823FE
:103E10006343124DEE18F1780029F3D010335D1989
:103E2000280000F0F3FD3F28ECD90020F178FFF7DF
:103E300097FE0028E6D0280000F0E8FDF1783F2842
:103E400007D9074BE201D21800204023FFF7B0FE4C
:103E5000D8E70020FFF798FED4E7C046601A00209C
:103E6000DC19002010B50400FFF788F9002801D103
:103E7000002010BDFFF78AF90028F9D1C82262435B
:103E8000024B01309B181B791840F2E7601A0020A2
:103E9000C82310B543430248181800F099FD10BD1F
:103EA000701A0020F8B5C824802344431C4F1034F6
:103EB00005003C195B029A4200D31A4A200092B2D4
:103EC00000F008FE0600FFF759F9002801D1300084
:103ED000F8BDFFF75BF90028F9D1C8236B43FF1841
:103EE000FB78002BF3D0200000F090FD3F28EED9A6
:103EF0000020F978FFF734FE0028E8D0200000F019
:103F000085FDF9783F2807D9074BEA01D218002030
:103F10004023FFF74DFEDAE70020FFF735FED6E736
:103F2000601A0020FFFF0000DC190020F8B5040033
:103F3000FFF724F9002801D10020F8BDFFF726F98A
:103F40000028F9D1C82565432E00134F2436F619F1
:103F5000300000F03DFD0028EED07F190020B97838
:103F6000FFF7FEFD0028E7D00C4DE401651929009C
:103F70004022300000F0AEFDB978041E08D00300E6
:103F80002A000020FFF714FE0028D5D02000D4E737
:103F90000020FFF7F9FDCFE7601A00201C1A00206F
:103FA00070B5C82444430C4B0500E41880235B0221
:103FB0009A4200D3094A200092B200F051FE060056
:103FC000200000F005FD3F2801D8300070BD28001A
:103FD000FFF7ACFFF9E7C046841A0020FFFF00009E
:103FE000C82310B543430248181800F00FFD10BD58
:103FF000841A0020F0B50025184C83B0C822002197
:104000002000FDF7F5FF164B21001D70FF236371A3
:10401000E1235B02A360200008234022A373383110
:104020000095073B103000F09DFC27000123210084
:1040300020002600402278310093B837243000F069
:1040400091FCC0363800FCF73DFE3000FCF73AFE2C
:10405000E56127622663656303B0F0BD601A002046
:104060005C1A00200A4A116B136A00290CD0002B3D
:1040700007D00023D361536313630023136201202D
:10408000704753631363FAE7002BF8D0D161F4E76C
:10409000601A002070B50F4C052200212000FDF7AA
:1040A000A7FF0D4D2B78DA0707D50C4C9B070CD5D5
:1040B0000121200000F0B0FE70BD2000103000F0A3
:1040C0008BFE2B78054C9B07F2D4200000F084FE79
:1040D000EEE7C046601A00205C1A0020841A002017
:1040E000F0B54B79060083B0022B02D18B79022BFD
:1040F00003D00025280003B0F0BD204FBB78002B73
:10410000F7D18B7809253B700C780C196378242B38
:1041100007D00CE02378E4185D196378ADB2242B46
:1041200005D19542F6D90020FFF766FEE2E71A00B6
:10413000052B15D0042AF6D163790A2BF3D1104B45
:10414000277801930133009330000223E119023AEA
:10415000FFF79EFC0028CCD00E35ED19ADB2E2E79A
:1041600021003000FFF7E2FC0028C2D0A3787B706A
:1041700023785D19E4186278ADB2DBE7601A00209D
:10418000621A0020F8B5602314001278050013406D
:104190000020202B07D1304A6379277916781B023B
:1041A0003B439E4200D0F8BD6378222B1AD007D83B
:1041B000202B34D0212BF6D101293ED00120F2E76B
:1041C000232BF0D1012940D00329F7D1234B002B19
:1041D000F4D0E178A37809020020194300E000BF81
:1041E0000120E0E7012930D00329E7D101252E0085
:1041F000A378E478023924021C4314712640243247
:104200001000714000F008FE154B002BD6D062085C
:10421000002031002A4000E000BF0120C3E701294F
:104220000BD00329CAD10F4B002BC7D00832002076
:104230001100FEF7ADFA0120B5E7072321002800A1
:10424000094AFFF7F1FC0120ADE721002800FFF744
:10425000D5FC0120A7E7C046601A0020000000003E
:104260000000000091270010681A0020F0B54F46AA
:104270004646D646C0B5364D8046EA780C001F004B
:104280008A423CD0AB788B4210D00020E0BCBA46CA
:10429000B146A846F0BD2F4B002B04D02E4800F0AD
:1042A000ADFB002851D00020FFF7A6FDAB78A3425C
:1042B00001D00120EAE7294B002B02D0002000E0CA
:1042C00000BF0020FFF732FE0028F2D1244C20006E
:1042D00000F07EFB0028ECD1002FEAD0BF06E8D129
:1042E000243C4046A178FFF73BFC0028E1D00023A6
:1042F00000224046A178FFF75BFC0120C6E79AB296
:1043000010239A46174EAA443100504600F0A8FCEC
:10431000154B002BBFD06B79FF2BBCD0002FBAD030
:10432000F219914603E001364E45B4D06B793278EC
:104330009A42F8D1504600F061FB0028F3D1534671
:10434000103B597900E000BFEDE700E000BFAAE7AD
:10435000601A002000000000701A00200000000019
:10436000841A0020DC190020000000009322F0B520
:10437000134C85B0002120009200FDF739FE230088
:104380002000802640270F4D4D337600FF33293023
:104390000295009300220023002103970196FF302D
:1043A00000F0D4F94035201D2834002301220021DB
:1043B000039702950196009400F0C8F905B0F0BD8E
:1043C000241D0020A41C002010B5054C200000F086
:1043D000F3F920002538FF3800F0EEF9012010BD78
:1043E0004C1E002070B5084C002520003130FF30F5
:1043F000257000F0F1FC20000C3000F0EDFC2A23C9
:10440000FF33E554657170BD241D0020F8B5574693
:104410004546DE464E46E0B54B7980460F00FF2B01
:104420005BD1404B99462A234946FF33CB5C002B96
:1044300053D14E79002E50D1BB783C780B703B792C
:104440003C19002B46D098235B004B449A460C2322
:104450004B449B46A51803E0AC423BD22378E418BA
:104460006378052BF8D1AC4234D221004046FFF7E7
:104470005DFB002831D0A3780136F6B2DB09012BB1
:1044800032D0504600F0A8FC2A234946A278FF33D8
:10449000CA54637922791B021343234A5B0594466D
:1044A0005B0D942163445A4253414A46022049001D
:1044B000525C5B00824313434A4653545146404684
:1044C000083900F0E3F9002807D02378E4183B7995
:1044D000B342C5D8E01B80B200E00020F0BCBB4670
:1044E000B246A946A046F8BD584600F075FC5A46AB
:1044F000A3780C3A5371637921791B020B430A4963
:104500005B058C465B0D634459424B410220117997
:104510005B0081430B43594600200839137100F0BA
:1045200081F9D2E7241D002000FEFFFFF8B52A25FF
:1045300006001F48FF35455D1F008D4215D04379A9
:104540008B4201D00020F8BD1A4B002B04D0390457
:104550000020090C00E000BF174C3000210000F0E3
:1045600061F900281DD00120EDE79A235B00C35AB2
:10457000002B0DD1114B002B04D000201049BAB2F2
:1045800000E000BF30000F4900F080F90120DAE7B9
:1045900096235B00C1583130BAB2FF3000F060FBA7
:1045A000E8E73A002100300000F008F90120CAE7EE
:1045B000241D002000000000281D00200000000035
:1045C000A41C00204C1E002000B5030083B000296D
:1045D00010D00020012B07D80A78002A04D00C48FC
:1045E000C2540120012A01D003B000BD1800FEF71B
:1045F000D5FDF9E701236A46002001A99380FEF763
:10460000CDFD0028F0D00122014B1A70ECE7C04626
:104610007C1B0020037870B5DB0704000E00DD0F63
:10462000002B17D103785B0701D5280070BD01214D
:104630003000494202F054F92378DB07DD0F002BEC
:104640000AD123785B0708D4042223780125134379
:10465000237002E00025E8E70025300002F020F991
:10466000E3E7C04670B50C00012106004942200076
:1046700002F036F933785B07DD0F002B04DB2000F6
:1046800002F00EF9280070BD3378DB0704D4042251
:10469000337893433370F2E70025F0E743790279EA
:1046A0001B021343C2785B0592075B0D920F022A2F
:1046B0001DD0032A0CD00020012A08D102394A4219
:1046C0005141124A9446614499424041C0B27047F8
:1046D00002394A1E91410E4A494211408022D200BD
:1046E00094460020614499424041C0B2EFE702295C
:1046F00005D0002040229A424041C0B2E7E7054A77
:10470000981843425841C0B2E1E7C046FF03000099
:1047100040FCFFFF00FEFFFF8A1870B5914207D2F0
:104720007F264C78052C04D00C7809198A42F8D8D9
:1047300070BD34008D782C4064000419ED09635578
:104740000C7809198A42ECD8F2E7C046F0B5C646A3
:1047500000B582B0150008AA40CA040017886A464E
:10476000928D012090460A0021780240814320006A
:10477000114321703A00009331000123083000F00A
:10478000F1F8002E01D0002F08D10A9B01206360B0
:104790004346638002B080BCB846F0BD26001C369C
:1047A0003000FCF78FFA0023002D01D033000026E3
:1047B0006361A661E9E7C04601207047F8B50224AD
:1047C0000B7807001C4063425C41144B64421C4060
:1047D000134B08009C4608300D001600644400F09E
:1047E000F7F8002807D1002E05D0344203D1012468
:1047F0002B781C4201D00020F8BD38006978FFF703
:10480000AFF90028F7D02B781C42F4D10023002206
:1048100038006978FFF7CCF9EEE7C04640FEFFFFAD
:10482000FF010000F8B50D000835060028000C0057
:1048300000F0CEF8002803D0012723781F4201D0D2
:104840000020F8BD30006178FFF78AF90028F7D022
:1048500028006288616800F03DF9237805001F4058
:1048600000280BD0002FEBD1030062683000617884
:10487000FFF79EF90028E3D02800E2E7002FDFD100
:1048800030006178FFF780F9DAE7C046F8B5CE4628
:10489000474680B58A8906000C000B78002A07D1AC
:1048A00001251D4240D00020C0BCB946B046F8BD2D
:1048B0009B0733D42A4B40259946270008373800F8
:1048C00000F0A4F88542EED80122237890461A42DF
:1048D000E9D130006178FFF743F90028E3D03800D0
:1048E00000F094F8424623781A40854231D8002AD5
:1048F000D9D14A46638802401D1C934200D9151C39
:10490000ADB200226178002D00D062682B0030002B
:10491000FFF74EF90028C6D02800C5E7FE23802502
:104920001B029946AD00C8E74978FFF719F900283E
:10493000B9D023781D42B6D1638800226178002B5C
:1049400000D062683000FFF733F90028ABD06088F0
:10495000AAE7002AA7D130006178FFF715F9A2E78E
:10496000C0FF0000F0B5C64600B504006846057EED
:104970008020884617001E000002824226D8E06888
:10498000002803D00121494201F0AAFF2069002834
:1049900003D00121494201F0A3FF43462360730481
:1049A0005B0CED031D430023E0686381A780E58075
:1049B0002381002801D001F073FF2069002801D075
:1049C00001F06EFF012080BCB846F0BD0020FAE780
:1049D00010B5048941898288A3B288B28C4207D37A
:1049E0001B1A9BB2101C9A4200D9181C80B210BD31
:1049F0005100091A5B189BB2F4E7C046038940894D
:104A0000181A43425841C0B27047C04610B50489D5
:104A100041898288A3B288B28C4207D31B1A9BB209
:104A200000209A4201D9D21A90B210BD5100091A41
:104A30005B189BB2F4E7C04670B5040000690E0035
:104A4000002803D00121494201F04AFF25896089ED
:104A5000A288A9B283B2854232D3CD1AADB2002D5D
:104A600028D0AA4208D291422FD3891A8BB26381EF
:104A70009A4203D89B1A9BB29A42FBD9E2882168DA
:104A80005204520C53433000C918FDF7B7FA63893A
:104A90000125591C89B2A2888B420DD900215200F0
:104AA000891A89B220696181002801D001F0F8FEDD
:104AB000280070BD618989B252009142F2DBEFE7B4
:104AC0005500ED1A4D19ADB2C9E789188BB2638153
:104AD000CEE7C046F0B546464F46D646C0B50600BE
:104AE000006989469046002803D00121494201F01F
:104AF000F7FE31897289B5888BB294B2914254D352
:104B00001F1BBFB2002F4AD0BD4205D2AB4251D2CB
:104B10005B199CB22F0074814346B8453DD89FB2C3
:104B2000A54203D8641BA4B2A542FBD9F288316820
:104B30005204520C904662432B1B9BB2891842468A
:104B40009F4225D953439BB21A0048469A46FDF727
:104B500055FA434648467D1B64195C43316850440E
:104B6000A2B2FDF74BFA7189B588CB199BB26A00E6
:104B7000994216D99B1A9BB230697381002801D0E3
:104B800001F08EFE3800E0BCBA46B146A846F0BD42
:104B900048467A43FDF732FAE5E73B1CBFE77389E5
:104BA0009BB26A009342E7DBE4E76F003F1BDF192B
:104BB000BFB2A7E75B1B9CB2ACE7C046F8B50400E8
:104BC000C0680E00002803D00121494201F088FE90
:104BD000258920896189A288ADB283B28FB28842CB
:104BE00029D3DB1B9BB29A4209D8E779FF0906D18A
:104BF000E068002801D001F053FE3800F8BD2B001A
:104C000095421DD39B1A9BB29342FBD2E288206847
:104C10005204520C53433100C018FDF7EFF96B1CDE
:104C20009BB2A2889D4217D9002352009B1A9BB2C7
:104C300001272381DCE75100C91B5B189BB2D2E737
:104C4000E28820685204520C53433100C018FDF72B
:104C5000D5F90135A288ABB252009342E8DBE5E713
:104C6000F0B54E465746DE464546E0B58946060055
:104C7000170083B0002A67D0C068002803D0012144
:104C8000494201F02DFE3389F2799BB2984673892F
:104C9000B5889BB2D20940D198455ED26A00D31A3A
:104CA00043449BB2AB425DD2EB1A1A1C9BB2BB428F
:104CB00000D93A1C97B27B1B9BB20193F3885B042B
:104CC0005B0C9A464346DB199BB29B464446A8457B
:104CD00003D3641BA4B2AC42FBD253466343306897
:104CE0002D1BADB2C018BD424BD3524649467A4344
:104CF000FDF784F9B3885B00D84501D89B4503DBF9
:104D00005A46D31A9BB29B465B463D003381F068FE
:104D100000281AD001F0C4FD17E0F2885204520CAA
:104D20009246AF4220D298454DD34246D21A92B213
:104D30006900781B80B2D21901908A4233DA434667
:104D4000FB189BB29B46C1E70025280003B0F0BCCE
:104D5000BB46B246A946A046F0BD4246D31A9BB216
:104D6000AB42A1D30025D2E7002DD0D07F1B574303
:104D700098465A19002392B2B94493462F000193E2
:104D8000A4E753465D43ADB22A004946FDF736F924
:104D9000019B2900E21853465A43306892B24944B5
:104DA000FDF72CF9A6E75A1992B29346D21B92B29C
:104DB000904693420CD94346591A8BB29846FB1839
:104DC0009BB29B4682E76900CA1A424492B2B0E79E
:104DD000914200DD7AE7EEE710B50400C0680028D4
:104DE00003D00121494201F07BFD2069002803D056
:104DF0000121494201F074FD0023E06863812381B1
:104E0000002801D001F04CFD2069002801D001F0FC
:104E100047FD012010BDC04670B50400C0680D00FC
:104E2000002803D00121494201F05AFD20690028E1
:104E300003D00121494201F053FD7F21E379ED01C7
:104E40001940E0682943E171002801D001F028FDF4
:104E50002069002801D001F023FD012070BDC0466B
:104E6000F0B54E464546DE465746E0B50D000B35DB
:104E7000060085B0162D21D8102900D9D4E000F005
:104E8000D5FA102518230221CA4FFB181A005C68B6
:104E9000083A944200D186E103226368A1689343F3
:104EA000E268CA6091600121E3185A6830000A4341
:104EB0005A6000F0C3FA20000830B8E007239D4391
:104EC00000D5B1E0A94200D9AEE000F0AFFAFC2372
:104ED0005B009D4200D2E0E1690A00D1AEE0042906
:104EE00000D9A1E138239846A90988443931CB007B
:104EF000082252429446AF4FFB189C446346DC683C
:104F0000A44514D0032399460B0061469C4607E054
:104F1000E068002A00DB40E1814200D141E1040069
:104F20004A46636893435A1B0F2AF1DD41463A0013
:104F30003C690832944200D11EE103206368834338
:104F4000581B0F2800DDACE13A617A610028AADA2B
:104F50007A68904680229200934200D336E1DA08C4
:104F6000580901238340404618438046D300DB198B
:104F70009A687860E360A2609C60D46001208B1026
:104F80009840404562D8434603420AD103239943DF
:104F9000434640000431034203D140000431034240
:104FA000FBD00323B3469C460E00B8460190F000A8
:104FB00040440100B246CB680BE064465A681F00CB
:104FC000A243DB68541B0F2C00DD39E1002C00DB11
:104FD00053E19942F1D101239946CA44534608311D
:104FE0009B07E8D1032205E003680838013E8342AD
:104FF00000D013E23242F7D14346019A5B689343F3
:1050000042465360019A520001929A421CD8002AEB
:1050100006D119E004229146019ACA445200019235
:105020001342F7D05646C2E70C233360002005B088
:10503000F0BCBB46B246A946A046F0BD80233F2245
:10504000402190469B0053E75E4647460322BC68DA
:10505000636893439846AB4203D35B1B0F2B00DD81
:105060008DE0230043440293534B08201B68103308
:105070005B19019300F08EFE504903900B688A463D
:10508000013306D08446019B4242013B63441340F6
:1050900001933000019900F065FE03008146013361
:1050A00000D11CE1029B834200D916E1444B0298D7
:1050B0009B461A68019B59469C4662440A600399C4
:1050C0000139484500D157E153461B68013300D1EF
:1050D0005EE14B4602981B1A9B185A461360072341
:1050E0004A4648461A400292184200D115E10398F8
:1050F000013384469B1A019A99444A4401926344BD
:105100000A409B1A194030008A4600F02BFE431CCF
:1051100000D158E14B46C01A0300534401935B464B
:105120001A68012052441A604B464946BB60019BF5
:1051300003434B60BC4213D043460F2B00D82BE1F6
:1051400007210C3B8B4361680140052019436160D6
:10515000E118486088600F2B00D93FE14B465B683F
:1051600018490868904200D20A60174908689042BE
:1051700000D20A604C46B4E07B689846FEE6012205
:10518000290013431143651961603000BD606B60F5
:1051900000F054F92000083049E7A268D06082602E
:1051A00081E66146C3E6DC680231A34200D1BEE677
:1051B00072E6C04678100020981800207010002079
:1051C0006818002090180020941800205A0A042A19
:1051D0007CD9142A00D9B0E010005B3082465C32E2
:1051E000D200082040428446BA189444624692682D
:1051F0000B308146944500D186E00800A246614606
:10520000844602E09268914204D04C465068A04324
:105210009842F7D8D368614654469C466346A260DC
:10522000E3609C60D460A9E6142967D9542900D9A9
:105230008CE06E239846290B88446F31CB0057E6EB
:10524000BA460120514684464919054350464560F7
:10525000856847466046EB605E469D60534639610F
:105260007961204308374860CF6030008F609C50E0
:1052700000F0E4F850460830D9E6BA4601205E4610
:105280005244516801435160BA683000D3609A605B
:1052900000F0D4F838000830C9E62B00E9080833DC
:1052A000F2E56119884601218C460D43414665604F
:1052B00039617961CA608A60624602434A60E0509F
:1052C000300000F0BBF820000830B0E69A0910006A
:1052D000393238308246D20083E7BC4241D0BC68C4
:1052E0006368032293431A005B1BAA4202D30F2B6D
:1052F00000DD44E7300000F0A1F897E65B23984614
:1053000088445C31CB00F3E5534698100123834079
:10531000404618438046786080E7019B039A4B44DF
:105320000B40D31A194030008A4600F01BFD431C85
:1053300000D0EFE600239A46F1E6542A2ED81A0B45
:1053400010006F326E308246D2004AE7AA235B001B
:1053500099422ED8DD3B9846E90B88447831CB0042
:10536000C6E5304B9B461A68019B9C465B466244EF
:105370001A60039B591EA7E64846084200D0A3E6E0
:10538000B9684344894601210B4349464B60E7E62F
:1053900053464A461A60A2E64860ABE7AA2040009E
:1053A000824226D8DA0B1000783277308246D2005B
:1053B00017E71D4B994226D87C239846A90C8844B0
:1053C0007D31CB0094E5019A029B94464A46083B06
:1053D00063449B1A019300239A46A0E62100300003
:1053E000083100F075FD5B461A68BB6899465B683A
:1053F000B6E60D4882420CD89A0C10007D327C3003
:105400008246D200EDE6FE237E227F2190469B005D
:105410006EE5FE227E2092008246E2E643465B680D
:10542000F0E5C046681800205405000010B5024899
:1054300000F0C2FC10BDC0466018002010B5024844
:1054400000F0BCFC10BDC04660180020F0B54F460F
:1054500046461C00D646C0B517006243904686B04B
:1054600001AB0191039341460123029203AA061E58
:1054700091460E9D0591049302D0436B002B59D0A9
:105480000C216A5E01216B6E8A46194222D091047A
:1054900035D4802189010A43AA812A4A13406B66C8
:1054A0004A462900300000F00BFE01226B6E1340CB
:1054B000002829D0002B05D1AB899B0502D4A86D0B
:1054C00000F07CFC4B46986843463900181AFCF7FC
:1054D000A7FC0EE091051ED59104DAD552465B1368
:1054E0001A42DDD0AB899B0502D4A86D00F066FCA2
:1054F000002006B0E0BCBA46B146A846F0BD524610
:105500005B131A42F4D1CBE7002B02D1AB899B0588
:1055100013D52000EDE7A86D00F04EFC0C23EA5EE9
:105520006B6E9104B5D551465A131142B8D0194249
:10553000D8D0DDE700F088FBA2E7A86D00F03EFCC4
:105540002000D6E7FFDFFFFF10B50400054882B05A
:105550000068009313000A002100FFF777FF02B0F4
:1055600010BDC0468C140020F0B557464E46DE46AE
:105570004546E0B50C000600170083B0002900D1B5
:10558000ACE0FFF753FF08235B429946A1444B462A
:105590005B68032219003D0091430B35CA468846DB
:1055A000162D67D81025AF4267D8A8456EDA494650
:1055B000C04841444A68009080689346884200D1C0
:1055C000A0E001208446100062469043081840681D
:1055D000104200D077E05A46032082439346C344EA
:1055E0005D454EDD6046184212D14B4648461B6869
:1055F000C31A03209B465B688343D218424400923F
:10560000954200DCCCE0434400939D4200DCCBE0BB
:1056100039003000FFF724FC071E00D11EE14B4685
:1056200001225B68934302004B44083A934200D145
:10563000E3E04246043A242A00D9E3E003002100D3
:10564000132A09D923680360636843601B2A00D9C1
:10565000DCE00300083108330A681A604A685A60BF
:105660008A689A603000210000F032FC3000FFF7B9
:10567000E5FE20E00432954395D50C2300273360E6
:1056800019E0D846CB688A68D3609A6043465F1BAE
:105690005346012250465B68404413400F2F22D8E6
:1056A00041460B4351464B6043681343436030000F
:1056B000FFF7C4FE2700380003B0F0BCBB46B2467B
:1056C000A946A046F0BD1A42A2D14B464A461B68E5
:1056D000D31A03229B465B68934394E71100FFF7BC
:1056E000BFFB0700E7E751462B43491955461743CF
:1056F0006B604F604368083113434360300000F033
:10570000E7FBD4E703218A4394462900C4441031BF
:105710008C4500DB84E0DB0700D579E74B46484643
:105720001B68C31A03209B465B688343D21842441C
:105730000192914200DD66E75B465A46DB6892685B
:105740005F46D3609A604246043A0837242A00D95B
:1057500099E03B00132A0AD9594623688B60636895
:10576000CB601B2A00D993E05B46083410332268D3
:105770001A6062685A60A2689A605B4601225919F1
:10578000009B30009960019B5B1B13434B605B46A1
:105790005B6813405A462B435360FFF74FFE8AE77E
:1057A000CB688A68D3609A605B465A46DB68926829
:1057B0005F46D3609A604246043A0837242A17D8D5
:1057C0003B00132A09D9594623688B606368CB6074
:1057D0001B2A39D85B460834103322681A60626885
:1057E0005A60A2689A60009B3C009846DA464DE7F2
:1057F0002100380000F054FAF5E703225B68934378
:10580000984443E7210000F04BFA2BE7A36883603C
:10581000E368C360242A26D00300103110331BE74D
:105820004B465919009B0122996063465B1B134349
:105830004B604B465B68300013404A462B43536035
:10584000FFF7FCFD270036E7A3680B61E3684B61B7
:10585000242A10D05B4610341833BEE73000FFF71F
:10586000EDFD002727E72369183103610300626912
:1058700018334261F0E623698B615B46626920332D
:10588000CA611834A9E72100380000F009FA74E76A
:10589000A3680B61E3684B61242A03D05B46103494
:1058A000183364E723698B615B4662692033CA6100
:1058B00018345CE778100020F0B5C64600B50C221D
:1058C0008B5E07000C001A074DD480216268090125
:1058D0001943A181002A69DDA56A002D3FD000226D
:1058E0003E683A60DB0466D4002201233800E16997
:1058F000A8470200431C6BD00C23E15EA56A490750
:1059000006D56368D21A236B002B01D0E36BD21A41
:1059100000233800E169A8470C23E25E431C4CD108
:1059200039681D295ED8314BCB40DB075AD5304B47
:105930001340A3810023636023692360D20401D54F
:10594000002943D0216B3E60002908D0230040335A
:10595000994202D0380000F0BBFA002323630020F4
:1059600080BCB846F0BD0E69002EF8D00D6800224C
:10597000AD1B0E609B0700D14A69A260002D04DCBC
:10598000EDE736182D1A002DE9DD636A32009846DE
:1059900038002B00E169C0470028F2DC4022A389CF
:1059A00013431BB20120A3814042D9E7E26B002AD6
:1059B00000DD91E7D3E7226DA1E70D4B1340A381F2
:1059C0000023636023692360D204BBD52065B9E757
:1059D0003B68002B00D18FE71D2B01D0162BDDD1AA
:1059E0003E60BCE740231343DCE7C0460100402093
:1059F000FFF7FFFF70B505000C00002802D0436BD5
:105A0000002B27D00C22A35E002B11D0626ED20790
:105A100001D49B050ED528002100FFF74DFF636ED2
:105A20000500DB0702D4A3899B050FD5280070BDB4
:105A30000025FBE7A06D00F0BFF928002100FFF76B
:105A40003BFF636E0500DB07F0D4ECE7A06D00F0D0
:105A5000B5F9EBE700F0F8F8D4E7C04670B5041EDE
:105A60002AD0194B1D68002D02D06B6B002B17D06C
:105A70000C22A35E002B11D0626ED20701D49B05CD
:105A800012D528002100FFF717FF636E0500DB0722
:105A900002D4A3899B050BD5280070BD0025FBE728
:105AA000280000F0D1F8E3E7A06D00F085F9E8E701
:105AB000A06D00F083F9EFE7044A0549054800F0BE
:105AC00073FC0500E8E7C0468C1400208014002019
:105AD000F55900109014002010B5034A03490448FA
